:020000040800F2
:10200000900E0020C9200008D1200008D32000082D
:1020100000000000000000000000000000000000C0
:10202000000000000000000000000000D5200008B3
:102030000000000000000000D720000885240008F0
:10204000DB20000800000000DB200008DB20000887
:10205000DB200008DB200008DB200008DB20000874
:1020600000000000DB200008DB200008DB20000867
:10207000DB200008DB200008DB2000080000000057
:10208000DB200008DB20000800000000DB20000847
:10209000DB200008DB200008DB200008DB20000834
:1020A000DB200008DB200008DB200008DB20000824
:1020B000D92500080348854600F038F80048004755
:1020C000652D0008900E0020044880470448004712
:1020D000FEE7FEE7FEE7FEE7FEE7FEE76525000810
:1020E000B520000830B50B4601460020202201240F
:1020F00009E00D46D5409D4205D31D469540491B3C
:102100002546954040191546521E002DF1DC30BD84
:1021100010B5002200E0521C835C8C5CA34201D10C
:10212000002BF8D1D8B2E1B2401A10BD064C0125FF
:10213000064E05E0E36807CC2B430C3C984710346F
:10214000B442F7D3FFF7BAFF882F0008A82F000882
:1021500000B52D4840690121490408432A494861D6
:102160000846806989140843274988610920C00608
:102170000068264908400921C90608600846006829
:10218000FF21053108430921C90608600846006897
:102190001521C90208430921C90608600846006ADA
:1021A0000003000B0862084680683F21890208434B
:1021B0000921C90688600020154908600F20000227
:1021C0004860D1208000086010200921C90688617C
:1021D000022088610F4800F0CBF810200921C906C1
:1021E00088623F21012000F052F810200921C90621
:1021F000886188624101022000F049F8102009211D
:10220000C906886100BD000000100240F000FFFF19
:102210000030014010270000F0B50646F006070C1C
:1022200010200921C9068862384600F089F838462E
:1022300000F086F8384600F083F8384600F080F861
:1022400010200921C90688617D20C00000F090F8A7
:1022500010200921C9068862002000F071F80504E9
:102260000024002000F06CF80543002000F068F81E
:102270000004C11704430D43002000F061F804433B
:1022800010200921C906886120462946F0BD30B5D5
:1022900003460C46D802012189024018A106890E86
:1022A000084385B210200921C9068862284600F03B
:1022B00047F8284600F044F8284600F041F8284640
:1022C00000F03EF810200921C906886130BD0000E9
:1022D0000EB5184880690121C90208431549886173
:1022E0000220002103220B46009201910290024637
:1022F00008210920C00600F0C9FC022000210322A9
:102300000B4600920191029002460921C80600F096
:10231000BDFC0020084908604860FF200230886149
:1023200003208860112008620448C8620120086008
:102330000EBD000000100240002C0140FFFF000015
:10234000014600BF09488068802210400028F9D16A
:102350000648C16000BF05488068C007C00F00285C
:10236000F9D00248C06880B27047000000300140D8
:1023700008B5009000BF00994A1E00920029FAD1CA
:1023800008BD000072B601214907002006E0820066
:102390000A4BD21812688300CA50401C3028F6D36A
:1023A0000748006803221043054A10600548806909
:1023B00001221043034A906162B670470020000872
:1023C00000000140001002402C482D4909680122FC
:1023D000120411432A4A116000BF0146401E002921
:1023E00006D0274909680122520411400029F4D07F
:1023F0002349096801225204114000293CD0204998
:102400004968F02291431E4A5160114649680722EB
:10241000120291431A4A5160114649683F22120440
:102420009143174A51601146496811221204114321
:10243000134A516011460968012212061143104ADD
:10244000116000BF0E49096801225206114000299F
:10245000F8D00B49496889088900094A516011463A
:10246000496802221143064A516000BF0449496885
:102470000C2211400829F9D17047000040420F009A
:102480000010024009480068401C084908607D218E
:10249000C900884208D30020044908600448006845
:1024A0000121084302490860704700002001002014
:1024B00024010020F8B50025002400260027244828
:1024C00040680C2108400546002D04D0042D06D09C
:1024D000082D2BD107E01F481F4908602AE01D483E
:1024E0001D49086026E01A4840680F218904084009
:1024F0000446174840680121090408400646A00C1C
:10250000841C1348C06A0007000F471C0846864217
:1025100007D139460F48FFF7E5FD60430E490860D3
:1025200003E00E4860430C49086003E009480A498B
:10253000086000BF00BF06484068F021084000095D
:1025400007490D5C04480068E84003490860F8BD8D
:102550000010024000127A003C01002000093D00FA
:10256000702F0008194800680121084317490860C6
:102570000846406816490840144948600846006803
:10258000144908401149086008460068012189047F
:1025900088430E490860084640683F210904884383
:1025A0000A4948600846C06A00090001C862084636
:1025B000006BFF2114318843044908630846406BCF
:1025C00040084000486300208860704700100240C7
:1025D0000CB8FF08FFFFF6FE104840680F21090401
:1025E00008430E4948600D4840308069400840006B
:1025F0000A49403188610A488088C8610846806974
:102600000121084305494031886100BF0348006843
:102610000121490408400028F8D07047000002401A
:102620002044004010B50446254840692549084328
:10263000234948610846C0690121490408432049EB
:10264000C8610920C0060068F02188430921C90635
:10265000086008460068A02108430921C9060860EF
:102660000846006AFF21090288430921C906086259
:102670000846006A1121090208430921C9060862B7
:10268000FFF718FF0020104908604860C0208860EC
:1026900021460E480068FFF725FD0B49C8600D2054
:1026A00008600B480B494862802088610648243046
:1026B00008629020486004482830C86010BD0000BF
:1026C0000010024001000200004400403C010020D4
:1026D000900200204000024000BF0549C9698022E5
:1026E00011400029F9D002492031088170470000CB
:1026F000004400400021144A106101E04A1C91B2DC
:102700000378401C002BF9D10F4A403A52680F233E
:102710001B031A430C4B403B5A600B4A5268520849
:102720005200094B5A601A469160526801231A43BD
:10273000054B5A6000BF044A403A126801235B030C
:102740001A40002AF7D07047400002400148024971
:1027500008607047AAAA0000003000400FB410B50E
:1027600004A9074B02AA039800F058F8044602A9EE
:10277000002000F0FBF9204610BC08BC04B018474C
:102780006D2B000810B5002819DB1A4A03231B0221
:10279000D21883089B00D2588307DC0EFF23A34086
:1027A0009A438B071B0E8407E40EA3401A43114B78
:1027B000032424021B198408A4001A5118E00E4AAD
:1027C00003071B0F083B9B089B00D2588307DC0EB6
:1027D000FF23A3409A438B071B0E8407E40EA340FC
:1027E0001A43054B0407240F083CA408A4001A51FF
:1027F00010BD000000E100E01CED00E002E008C8B0
:10280000121F08C1002AFAD170477047002001E06A
:1028100001C1121F002AFBD170470000FFB58FB025
:102820000546002606E025280AD0129A11999047FD
:102830006D1C761C28780028F5D1304613B0F0BD09
:10284000002402940121B54A009400E004436D1C69
:102850002B780846203B98401042F7D128782A2848
:102860000ED00222287801463039092916D802995B
:102870000A2359433039401814436D1C0290F1E784
:10288000109802C802911090002904DA0120400338
:10289000044348420290022004436D1C28782E28ED
:1028A00017D10420044368786D1C2A280CD1109895
:1028B0006D1C02C8009110900BE000990A22514350
:1028C000303940186D1C00902878014630390929AC
:1028D000F3D928786C2810D006DC4C281AD0682848
:1028E0000ED06A2817D104E0742813D07A2812D1A8
:1028F00010E00120400504430CE00121090501E03E
:10290000032109050C436978814203D101200005A8
:1029100024186D1C6D1C2878692874D006DC0028EA
:102920008BD0632827D0642806D16CE06E2808D0AD
:1029300073282CD0752878D0129A11999047761C5C
:102940005FE06002400F022809D003280DD0042860
:10295000109801680DD00E60001D109051E0109885
:10296000F21701680E604A60F6E7109801680E8061
:10297000F2E70E70F0E710986A4601781173001DB7
:1029800010900020507303A80190012005E01098DA
:1029900002C8019110900020C04361070CD50027A8
:1029A00000E07F1C00998F420FDA8742F9DB019922
:1029B000C95D0029F5D108E0002700E07F1C8742AF
:1029C000FCDB0199C95D0029F8D102982146C01BA2
:1029D0000290129B119A00F0B3F88019C61907E013
:1029E000019801990078491C0191129A1199904718
:1029F0007F1EF5D22146129B119A029800F090F8A2
:102A000086196D1C16E70A200190109901C91091D2
:102A10006102490F032900D100B2042900D140B25C
:102A2000002803DA40422D2103E00DE0210504D502
:102A30002B216A461173012103E0E10711D0202107
:102A4000F7E70CAF0C9114E00A200190109901C92E
:102A500010916102490F032900D180B2042900D1ED
:102A6000C0B20021EDE70199FFF73CFB30317F1E3A
:102A700039700028F7D104A8C01B203001906007EE
:102A800004D5012000048443009801E00120009057
:102A90000199884201DD401A00E0002041180090B1
:102AA0000C9809180298401A0290E00306D42146B7
:102AB000129B119A029800F043F8861900200D909D
:102AC00008E003A9085C129A119990470D98401CE0
:102AD000761C0D900C998842F3DBE0030CD521465F
:102AE000129B119A029800F02BF8861904E0129AB2
:102AF000302011999047761C0099481E00900029BB
:102B0000F5DC05E03878129A7F1C11999047761C05
:102B10000199481E01900029F4DC6BE709280100A7
:102B2000F8B5044600251E461746880404D405E07F
:102B300039462020B0476D1C641EF9D52846F8BDE3
:102B4000FFB50446002581B01E46C80301D53027D5
:102B500000E02027880404D505E038460399B047F3
:102B60006D1C641EF9D5284605B0F0BD0A68531CDB
:102B70000B6010707047000010B5374800880028BF
:102B800002D0012866D12DE0344935A0FFF7C0FA04
:102B9000002806D134A13748FFF7E0FD3548FFF79C
:102BA000A9FD3548C06920210840002819D03348C4
:102BB00040680F210904084330494860C8142F4970
:102BC0004031C86108468069012108432B494031E2
:102BD000886100202A4908802A49088001201E496E
:102BE000088037E02448C06910210840002804D03C
:102BF00023480088401C22490880204800680121A1
:102C000049040840002806D000201349088001200C
:102C1000C0021C4908801A4800881B49884218DBFA
:102C20001548006A0121C902084313490862134884
:102C30004030C069C914081A124908800F48403052
:102C40008069400840000D494031886100200249F8
:102C5000088000BF00BF10BD360100209002002098
:102C6000666C6173680A00004D61696E2061707066
:102C70000A000000800100200044004000000240E3
:102C80003801002034010020FFFF0000F0B5059C52
:102C900005684F000326BE40B543056005684E0039
:102CA0001746B7403D430560456802268E40B54350
:102CB000456045681E468E403543456085684F0037
:102CC0000326BE40B543856085684E002746B74061
:102CD0003D438560C5684F000326BE40B543C560CF
:102CE000C6684F00069DBD402E43C660072901DD22
:102CF000012500E00025AE0005462035AD59072925
:102D000001DD012600E00026F6008E1BB7000F262D
:102D1000BE40B543072901DD012600E00026B600CC
:102D200007462037BD51072901DD012500E00025B8
:102D3000AE0005462035AE59072901DD012500E02A
:102D40000025ED004D1BAF00079DBD402E43072918
:102D500001DD012500E00025AD00074620377E514A
:102D6000F0BD0000FFF70EFBFFF72EFBFFF7A2FB05
:102D70007D21C9006A480068FFF7B4F90446601E67
:102D80006849884200D90CE0601E67494861032108
:102D9000081FFFF7F7FC00206349886107200861DE
:102DA00000BF6248FFF73EFC61A16448FFF7D6FC14
:102DB0006248FFF79FFCFFF78BFAAFE0FFF7C6FC16
:102DC000FFF7DAFEFFF7C4F90120FFF725FA054601
:102DD0000E46294630465A4B59405840014306D1C9
:102DE00058480068022108435649086005E05548E4
:102DF0000068022188435349086052480068022154
:102E0000084000286CD0002418E002200921C906DF
:102E100088628861102088620020FFF791FA002004
:102E2000FFF78EFA0020FFF78BFA0020FFF788FAF1
:102E300010200921C9068861601CC4B2012CE4DBA2
:102E4000002429E002200921C90688628861102037
:102E500088620020FFF774FA2146123189003A4A4D
:102E600050500020FFF76CFA21460C318900364A99
:102E700050500020FFF764FAA11D8900324A5050DB
:102E80000020FFF75DFAA1002F4A505010200921C1
:102E9000C9068861601CC4B2062CD3DB00240CE098
:102EA000A0002949085A0205120D28A12348FFF75E
:102EB00055FC2248FFF71EFC641C182CF0DB25484B
:102EC00025A102681D48FFF749FC1C48FFF712FCCA
:102ED0000A20FFF701FC1F480068401C1D490860DC
:102EE00018480068C007C00F002816D015480068B1
:102EF00002210840002803D118A11048FFF72EFC3A
:102F000014480068194908600E48006840084000ED
:102F10000C49086000200F49086000BF4EE7000020
:102F20003C010020FFFFFF0000E000E080841E0065
:102F30004D61696E206170700A0000008001002000
:102F40003F003F002401002030020020253034647F
:102F50003B0000002C010020257500004144432067
:102F60006E6F7420666F756E640A00003001002079
:102F70000000000000000000010203040607080929
:102F80000000000001020304A82F00082001002017
:102F900020000000FC270008C82F00084001002086
:102FA000500D00000C280008000000000000000088
:102FB0000000000000000000000000000000000011
:082FC0000000000000127A007D
:04000005080020B51A
:00000001FF
