:020000040800F2
:10200000A8070020C9200008D1200008D32000081C
:1020100000000000000000000000000000000000C0
:10202000000000000000000000000000D5200008B3
:102030000000000000000000D7200008392600083A
:10204000DB20000800000000DB200008DB20000887
:10205000DB200008DB200008DB200008DB20000874
:1020600000000000DB200008DB200008DB20000867
:10207000DB200008DB200008DB2000080000000057
:10208000DB200008DB20000800000000DB20000847
:10209000DB200008DB200008DB200008DB20000834
:1020A000DB200008DB200008DB200008DB20000824
:1020B0008D2700080348854600F02AF800480047AD
:1020C000592F0008A807002004488047044800470B
:1020D000FEE7FEE7FEE7FEE7FEE7FEE7192700085A
:1020E000B520000830B50B4601460020202201240F
:1020F00009E00D46D5409D4205D31D469540491B3C
:102100002546954040191546521E002DF1DC30BD84
:10211000064C0125064E05E0E36807CC2B430C3C3A
:1021200098471034B442F7D3FFF7C8FFA031000836
:10213000C031000800B52D48406901214904084319
:102140002A494861084680698914084327498861FB
:102150000920C0060068264908400921C906086010
:1021600008460068FF21053108430921C9060860B7
:10217000084600681521C90208430921C9060860FC
:102180000846006A0003000B0862084680683F2189
:10219000890208430921C9068860002015490860A2
:1021A0000F2000024860D120800008601020092123
:1021B000C9068861022088610F4800F0B3F9102039
:1021C0000921C90688623F21012000F052F8102041
:1021D0000921C906886188624101022000F049F89E
:1021E00010200921C906886100BD000000100240CE
:1021F000F000FFFF0030014010270000F0B5064658
:10220000F006070C10200921C9068862384600F044
:1022100071F9384600F06EF9384600F06BF938462F
:1022200000F068F910200921C90688617D20C000EE
:1022300000F078F910200921C9068862002000F01A
:1022400059F905040024002000F054F9054300204A
:1022500000F050F90004C11704430D43002000F0C2
:1022600049F9044310200921C906886120462946FE
:10227000F0BD30B503460C46D80201218902401852
:10228000A106890E084385B210200921C90688627B
:10229000284600F02FF9284600F02CF9284600F0D7
:1022A00029F9284600F026F910200921C90688617D
:1022B00030BD00000EB5184880690121C9020843ED
:1022C000154988610220002103220B4600920191EA
:1022D0000290024608210920C00600F0D1FD02202C
:1022E000002103220B46009201910290024609212F
:1022F000C80600F0C5FD0020084908604860FF20BE
:102300000230886103208860112008620448C86296
:10231000012008600EBD000000100240002C0140AA
:10232000FFFF00000221024A118002490860704745
:10233000400100204401002000B53E480088030011
:1023400000F0FAFA0604050F22374D7670E03A489D
:10235000C06820210840002802D0002035490880AC
:1023600066E0354800690221084333490861334873
:102370000068486108460069402108432E49086109
:1023800003202C49088053E02B48C06820210840D6
:1023900000280DD020202849C86008460069022185
:1023A00088432549086100202549086021490880A3
:1023B0003EE021480069012108431F490861204887
:1023C000006840001F490968085A1D49096849000A
:1023D0001A4A1268505205201649088028E016480B
:1023E000C06820210840002821D00420114908801D
:1023F0001148C068202108430F49C8600846006999
:102400004008400008610E480068401C0C49086004
:102410000846006840000949096840180A490968E7
:10242000884204D10020064908600249088000BFA4
:1024300000BF00BD400100200020024044010020F8
:10244000500100204C0100204801002010B5204818
:102450000078002802D0022837D100E035E01D487E
:10246000007855281ED11C48FFF75CFF1B48006907
:10247000012108431949086119481749088000BF1C
:102480001648C068202108400028F9D01348C068C9
:1024900008431249C86008460069400840000861C6
:1024A00000F094FA0B480078DE2801D100F08EFA93
:1024B0000CA10F4800F02CFA0D4800F0F5F900F0DF
:1024C0005DFC00200249087000BF00BF10BD000085
:1024D0003C010020A8020020001C0008002002404F
:1024E000ADDE0000436F6D206572720A00000000CF
:1024F00098010020014600BF0948806880221040F2
:102500000028F9D10648C16000BF05488068C007AF
:10251000C00F0028F9D00248C06880B270470000A0
:102520000030014008B5009000BF00994A1E00929B
:102530000029FAD108BD000072B601214907002028
:1025400006E082000A4BD21812688300CA50401C71
:102550003028F6D30748006803221043054A10606C
:102560000548806901221043034A906162B67047B2
:102570000020000800000140001002402C482D49B6
:1025800009680122120411432A4A116000BF014662
:10259000401E002906D02749096801225204114033
:1025A0000029F4D02349096801225204114000296E
:1025B0003CD020494968F02291431E4A516011469F
:1025C00049680722120291431A4A5160114649682C
:1025D0003F2212049143174A516011464968112263
:1025E00012041143134A5160114609680122120670
:1025F0001143104A116000BF0E49096801225206BA
:1026000011400029F8D00B49496889088900094A16
:1026100051601146496802221143064A516000BFC9
:10262000044949680C2211400829F9D1704700007B
:1026300040420F000010024009480068401C084951
:1026400008607D21C900884208D300200449086041
:1026500004480068012108430249086070470000EF
:102660002001002024010020F8B5002500240026C8
:102670000027244840680C2108400546002D04D05E
:10268000042D06D0082D2BD107E01F481F490860F4
:102690002AE01D481D49086026E01A4840680F21BD
:1026A000890408400446174840680121090408408D
:1026B0000646A00C841C1348C06A0007000F471C84
:1026C0000846864207D139460F48FFF70BFD6043A5
:1026D0000E49086003E00E4860430C49086003E0BF
:1026E00009480A49086000BF00BF06484068F02159
:1026F0000840000907490D5C04480068E8400349A8
:102700000860F8BD0010024000127A005401002059
:1027100000093D008831000819480068012108437C
:10272000174908600846406816490840144948603F
:1027300008460068144908401149086008460068C6
:102740000121890488430E490860084640683F21FA
:10275000090488430A4948600846C06A0009000124
:10276000C8620846006BFF2114318843044908639E
:102770000846406B4008400048630020886070476E
:10278000001002400CB8FF08FFFFF6FE104840683A
:102790000F21090408430E4948600D484030806904
:1027A000400840000A49403188610A488088C86171
:1027B000084680690121084305494031886100BF0E
:1027C000034800680121490408400028F8D07047F8
:1027D000000002402044004010B5044625484069EE
:1027E00025490843234948610846C0690121490435
:1027F00008432049C8610920C0060068F0218843C9
:102800000921C906086008460068A021084309217B
:10281000C90608600846006AFF21090288430921A9
:10282000C90608620846006A112109020843092105
:10283000C9060862FFF718FF0020104908604860C9
:10284000C020886021460E480068FFF74BFC0B490A
:10285000C8600D2008600B480B49486280208861E1
:102860000648243008629020486004482830C86038
:1028700010BD0000001002400100020000440040B2
:1028800054010020A80200204000024000BF05497A
:10289000C969802211400029F9D0024920310881FC
:1028A00070470000004400400021144A106101E01C
:1028B0004A1C91B20378401C002BF9D10F4A403AD0
:1028C00052680F231B031A430C4B403B5A600B4AC0
:1028D000526852085200094B5A601A469160526879
:1028E00001231A43054B5A6000BF044A403A12685C
:1028F00001235B031A40002AF7D0704740000240D2
:102900000148024908607047AAAA00000030004050
:102910000FB410B504A9074B02AA039800F080F881
:10292000044602A9002000F023FA204610BC08BC8F
:1029300004B01847712D000830B47446641E257821
:10294000641CAB4204D3635D5B00E31830BC1847E2
:102950001D46F8E710B5002819DB1A4A03231B02AD
:10296000D21883089B00D2588307DC0EFF23A340B4
:102970009A438B071B0E8407E40EA3401A43114BA6
:10298000032424021B198408A4001A5118E00E4ADB
:1029900003071B0F083B9B089B00D2588307DC0EE4
:1029A000FF23A3409A438B071B0E8407E40EA3402A
:1029B0001A43054B0407240F083CA408A4001A512D
:1029C00010BD000000E100E01CED00E000BF00BF12
:1029D00000BFBFF34F8F00BF00BF00BF06480749CD
:1029E000C86000BF00BF00BFBFF34F8F00BF00BF74
:1029F00000BF00BF00BFFDE70400FA0500ED00E0E6
:102A000002E008C8121F08C1002AFAD170477047B7
:102A1000002001E001C1121F002AFBD17047000015
:102A2000FFB58FB00546002606E025280AD0129A89
:102A3000119990476D1C761C28780028F5D13046F6
:102A400013B0F0BD002402940121B54A009400E0C7
:102A500004436D1C2B780846203B98401042F7D168
:102A600028782A280ED002222878014630390929F0
:102A700016D802990A2359433039401814436D1C63
:102A80000290F1E7109802C802911090002904DA30
:102A900001204003044348420290022004436D1C7D
:102AA00028782E2817D10420044368786D1C2A2822
:102AB0000CD110986D1C02C8009110900BE0009989
:102AC0000A225143303940186D1C00902878014685
:102AD00030390929F3D928786C2810D006DC4C2825
:102AE0001AD068280ED06A2817D104E0742813D0B1
:102AF0007A2812D110E00120400504430CE00121A6
:102B0000090501E0032109050C436978814203D1DD
:102B10000120000524186D1C6D1C2878692874D0CC
:102B200006DC00288BD0632827D0642806D16CE00F
:102B30006E2808D073282CD0752878D0129A119955
:102B40009047761C5FE06002400F022809D00328FE
:102B50000DD00428109801680DD00E60001D109053
:102B600051E01098F21701680E604A60F6E710987D
:102B700001680E80F2E70E70F0E710986A4601785F
:102B80001173001D10900020507303A801900120C4
:102B900005E0109802C8019110900020C043610721
:102BA0000CD5002700E07F1C00998F420FDA874286
:102BB000F9DB0199C95D0029F5D108E0002700E0A3
:102BC0007F1C8742FCDB0199C95D0029F8D102987E
:102BD0002146C01B0290129B119A00F0B3F8801995
:102BE000C61907E0019801990078491C0191129AD1
:102BF000119990477F1EF5D22146129B119A029897
:102C000000F090F886196D1C16E70A2001901099C3
:102C100001C910916102490F032900D100B20429B2
:102C200000D140B2002803DA40422D2103E00DE03C
:102C3000210504D52B216A461173012103E0E10728
:102C400011D02021F7E70CAF0C9114E00A2001907D
:102C5000109901C910916102490F032900D180B276
:102C6000042900D1C0B20021EDE70199FFF73AFA3B
:102C700030317F1E39700028F7D104A8C01B2030E6
:102C80000190600704D5012000048443009801E00E
:102C9000012000900199884201DD401A00E00020E7
:102CA000411800900C9809180298401A0290E0030D
:102CB00006D42146129B119A029800F043F8861917
:102CC00000200D9008E003A9085C129A1199904722
:102CD0000D98401C761C0D900C998842F3DBE003A4
:102CE0000CD52146129B119A029800F02BF88619F8
:102CF00004E0129A302011999047761C0099481EE2
:102D000000900029F5DC05E03878129A7F1C1199B3
:102D10009047761C0199481E01900029F4DC6BE76E
:102D200009280100F8B5044600251E461746880408
:102D300004D405E039462020B0476D1C641EF9D547
:102D40002846F8BDFFB50446002581B01E46C803DD
:102D500001D5302700E02027880404D505E0384657
:102D60000399B0476D1C641EF9D5284605B0F0BD27
:102D70000A68531C0B60107070470000002004E0CC
:102D80000021064A1154411C88B20549098888422D
:102D9000F6DB00200249088070470000A8020020EE
:102DA0003401002010B531480088002802D00128E5
:102DB0005AD120E02E48C06920210840002819D0AF
:102DC0002C4840680F21090408432A4948608815A7
:102DD00028494031C86108468069012108432549D6
:102DE000403188610020244908802449088001205E
:102DF0001E49088038E01E48C0691021084000289C
:102E000004D01D480088401C1B49088019480068F0
:102E1000012149040840002806D0002013490880F9
:102E2000FF2001301549088013480088FF281ADB6D
:102E30000F48006A0121C90208430D4908620D4884
:102E40004030C0698915081A0C490880094840308B
:102E500080694008400007494031886100F08AF9E4
:102E600000200249088000BF00BF10BD36010020CD
:102E700000440040000002403801002034010020DE
:102E8000F0B5059C05684F000326BE40B5430560BC
:102E900005684E001746B7403D4305604568022669
:102EA0008E40B543456045681E468E4035434560BB
:102EB00085684F000326BE40B543856085684E0097
:102EC0002746B7403D438560C5684F000326BE4096
:102ED000B543C560C6684F00069DBD402E43C66021
:102EE000072901DD012500E00025AE00054620355B
:102EF000AD59072901DD012600E00026F6008E1BF2
:102F0000B7000F26BE40B543072901DD012600E0CA
:102F10000026B60007462037BD51072901DD0125EF
:102F200000E00025AE0005462035AE59072901DD39
:102F3000012500E00025ED004D1BAF00079DBD40C1
:102F40002E43072901DD012500E00025AD000746DD
:102F500020377E51F0BD0000FFF7EEFAFFF70EFBC1
:102F6000FFF782FB7D21C9006E480068FFF7BAF8C1
:102F70000446601E6C49884200D90CE0601E6B4913
:102F800048610321081FFFF7E5FC002067498861BD
:102F90000720086100BF6648FFF71EFC65A168486E
:102FA000FFF7B6FC6648FFF77FFCFFF783F9B8E050
:102FB000FFF7A6FCFFF7F6FEFFF748FAFFF7BCF9AC
:102FC000FFF7B8F80120FFF719F905460E46294624
:102FD00030465C4B59405840014306D15A4800687E
:102FE000022108435849086005E05748006802215B
:102FF0008843554908605448006802210840002869
:103000007ED0002418E002200921C9068862886168
:10301000102088620020FFF76DFA0020FFF76AFA9F
:103020000020FFF767FA0020FFF764FA102009215B
:10303000C9068861601CC4B2012CE4DB002429E0CD
:1030400002200921C9068862886110208862002058
:10305000FFF750FA2146123189003C4A50500020B7
:10306000FFF748FA21460C318900384A50500020B9
:10307000FFF740FAA11D8900344A50500020FFF7A5
:1030800039FAA100314A505010200921C90688613F
:10309000601CC4B2062CD3DB00240CE0A0002B493A
:1030A000085A0205120D2AA12548FFF731FC2448D1
:1030B000FFF7FAFB641C182CF0DB274827A10268F5
:1030C0001F48FFF725FC1E48FFF7EEFB0A20FFF71D
:1030D000DDFB21480068401C1F4908601A48006851
:1030E000C007C00F00281BD0174800680221084005
:1030F000002808D11AA11248FFF70AFC104800E086
:103100000EE0FFF7D1FB14480068194908600E482B
:103110000068400840000C49086000200E49086023
:1031200000BF45E754010020FFFFFF0000E000E082
:1031300080841E004D61696E206170700A0000007D
:10314000980100203F003F00240100204802002099
:10315000253034643B0000002C0100202575000060
:10316000414443206E6F7420666F756E640A0000E0
:103170003001002003480078002802D102200149D4
:10318000087070473C0100200000000000000000B3
:1031900001020304060708090000000001020304FD
:1031A000C03100082001002038000000002A00087B
:1031B000F83100085801002050060000102A0008CD
:1031C00000000000000000000000000000000000FF
:1031D00000000000000000000000000000000000EF
:1031E00000000000000000000000000000000000DF
:0831F0000000000000127A004B
:04000005080020B51A
:00000001FF
