:020000040800F2
:1020000088060020C9200008D1200008D32000083D
:1020100000000000000000000000000000000000C0
:10202000000000000000000000000000D5200008B3
:102030000000000000000000D7200008692400080C
:10204000DB20000800000000DB200008DB20000887
:10205000DB200008DB200008DB200008DB20000874
:1020600000000000DB200008DB200008DB20000867
:10207000DB200008DB200008DB2000080000000057
:10208000DB200008DB20000800000000DB20000847
:10209000DB200008DB200008DB200008DB20000834
:1020A000DB200008DB200008DB200008DB20000824
:1020B000DB2000080348854600F02AF80048004766
:1020C000D12B0008880600200448804704480047B8
:1020D000FEE7FEE7FEE7FEE7FEE7FEE7492500082C
:1020E000B520000830B50B4601460020202201240F
:1020F00009E00D46D5409D4205D31D469540491B3C
:102100002546954040191546521E002DF1DC30BD84
:10211000064C0125064E05E0E36807CC2B430C3C3A
:1021200098471034B442F7D3FFF7C8FFF42D0008E6
:10213000142E000800B52D484069012149040843C8
:102140002A494861084680698914084327498861FB
:102150000920C0060068264908400921C906086010
:1021600008460068FF21053108430921C9060860B7
:10217000084600681521C90208430921C9060860FC
:102180000846006A0003000B0862084680683F2189
:10219000890208430921C9068860002015490860A2
:1021A0000F2000024860D120800008601020092123
:1021B000C9068861022088610F4800F0CBF8102022
:1021C0000921C90688623F21012000F052F8102041
:1021D0000921C906886188624101022000F049F89E
:1021E00010200921C906886100BD000000100240CE
:1021F000F000FFFF0030014010270000F0B5064658
:10220000F006070C10200921C9068862384600F044
:1022100089F8384600F086F8384600F083F83846EA
:1022200000F080F810200921C90688617D20C000D7
:1022300000F090F810200921C9068862002000F003
:1022400071F805040024002000F06CF8054300201C
:1022500000F068F80004C11704430D43002000F0AB
:1022600061F8044310200921C906886120462946E7
:10227000F0BD30B503460C46D80201218902401852
:10228000A106890E084385B210200921C90688627B
:10229000284600F047F8284600F044F8284600F0A9
:1022A00041F8284600F03EF810200921C90688614F
:1022B00030BD00000EB5184880690121C9020843ED
:1022C000154988610220002103220B4600920191EA
:1022D0000290024608210920C00600F00EFC0220F0
:1022E000002103220B46009201910290024609212F
:1022F000C80600F002FC0020084908604860FF2082
:102300000230886103208860112008620448C86296
:10231000012008600EBD000000100240002C0140AA
:10232000FFFF0000014600BF09488068802210407E
:102330000028F9D10648C16000BF05488068C00781
:10234000C00F0028F9D00248C06880B27047000072
:102350000030014008B5009000BF00994A1E00926D
:102360000029FAD108BD000072B6012149070020FA
:1023700006E082000A4BD21812688300CA50401C43
:102380003028F6D30748006803221043054A10603E
:102390000548806901221043034A906162B6704784
:1023A0000020000800000140001002402C482D4988
:1023B00009680122120411432A4A116000BF014634
:1023C000401E002906D02749096801225204114005
:1023D0000029F4D023490968012252041140002940
:1023E0003CD020494968F02291431E4A5160114671
:1023F00049680722120291431A4A516011464968FE
:102400003F2212049143174A516011464968112234
:1024100012041143134A5160114609680122120641
:102420001143104A116000BF0E490968012252068B
:1024300011400029F8D00B49496889088900094AE8
:1024400051601146496802221143064A516000BF9B
:10245000044949680C2211400829F9D1704700004D
:1024600040420F000010024009480068401C084923
:1024700008607D21C900884208D300200449086013
:1024800004480068012108430249086070470000C1
:102490002001002024010020F8B50025002400269A
:1024A0000027244840680C2108400546002D04D030
:1024B000042D06D0082D2BD107E01F481F490860C6
:1024C0002AE01D481D49086026E01A4840680F218F
:1024D000890408400446174840680121090408405F
:1024E0000646A00C841C1348C06A0007000F471C56
:1024F0000846864207D139460F48FFF7F3FD60438F
:102500000E49086003E00E4860430C49086003E090
:1025100009480A49086000BF00BF06484068F0212A
:102520000840000907490D5C04480068E840034979
:102530000860F8BD0010024000127A00340100204B
:1025400000093D00DC2D00081948006801210843FE
:102550001749086008464068164908401449486011
:102560000846006814490840114908600846006898
:102570000121890488430E490860084640683F21CC
:10258000090488430A4948600846C06A00090001F6
:10259000C8620846006BFF21143188430449086370
:1025A0000846406B40084000486300208860704740
:1025B000001002400CB8FF08FFFFF6FE10B50446FD
:1025C00021484069214908431F4948610846C069BC
:1025D0000121490408431C49C8610920C00600685C
:1025E000F02188430921C906086008460068A02137
:1025F00008430921C90608600846006AFF2109024C
:1026000088430921C90608620846006A11210902A7
:1026100008430921C9060862FFF73EFF00200C4964
:10262000086048608020886021460A480068FFF7FB
:1026300059FD0749C8600D20086090200649486090
:1026400003482830C86010BD00100240010002009D
:1026500000440040340100204000024000BF054912
:10266000C969802211400029F9D00249203108812E
:1026700070470000004400400021144A106101E04E
:102680004A1C91B20378401C002BF9D10F4A403A02
:1026900052680F231B031A430C4B403B5A600B4AF2
:1026A000526852085200094B5A601A4691605268AB
:1026B00001231A43054B5A6000BF044A403A12688E
:1026C00001235B031A40002AF7D070474000024004
:1026D0000148024908607047AAAA00000030004083
:1026E0000FB410B504A9074B02AA039800F058F8DC
:1026F000044602A9002000F0FBF9204610BC08BCEB
:1027000004B01847F12A000810B5002819DB1A4A4E
:1027100003231B02D21883089B00D2588307DC0EC8
:10272000FF23A3409A438B071B0E8407E40EA340AC
:102730001A43114B032424021B198408A4001A51C4
:1027400018E00E4A03071B0F083B9B089B00D2585A
:102750008307DC0EFF23A3409A438B071B0E8407DD
:10276000E40EA3401A43054B0407240F083CA408B9
:10277000A4001A5110BD000000E100E01CED00E0D3
:1027800002E008C8121F08C1002AFAD1704770473A
:10279000002001E001C1121F002AFBD17047000098
:1027A000FFB58FB00546002606E025280AD0129A0C
:1027B000119990476D1C761C28780028F5D1304679
:1027C00013B0F0BD002402940121B54A009400E04A
:1027D00004436D1C2B780846203B98401042F7D1EB
:1027E00028782A280ED00222287801463039092973
:1027F00016D802990A2359433039401814436D1CE6
:102800000290F1E7109802C802911090002904DAB2
:1028100001204003044348420290022004436D1CFF
:1028200028782E2817D10420044368786D1C2A28A4
:102830000CD110986D1C02C8009110900BE000990B
:102840000A225143303940186D1C00902878014607
:1028500030390929F3D928786C2810D006DC4C28A7
:102860001AD068280ED06A2817D104E0742813D033
:102870007A2812D110E00120400504430CE0012128
:10288000090501E0032109050C436978814203D160
:102890000120000524186D1C6D1C2878692874D04F
:1028A00006DC00288BD0632827D0642806D16CE092
:1028B0006E2808D073282CD0752878D0129A1199D8
:1028C0009047761C5FE06002400F022809D0032881
:1028D0000DD00428109801680DD00E60001D1090D6
:1028E00051E01098F21701680E604A60F6E7109800
:1028F00001680E80F2E70E70F0E710986A460178E2
:102900001173001D10900020507303A80190012046
:1029100005E0109802C8019110900020C0436107A3
:102920000CD5002700E07F1C00998F420FDA874208
:10293000F9DB0199C95D0029F5D108E0002700E025
:102940007F1C8742FCDB0199C95D0029F8D1029800
:102950002146C01B0290129B119A00F0B3F8801917
:10296000C61907E0019801990078491C0191129A53
:10297000119990477F1EF5D22146129B119A029819
:1029800000F090F886196D1C16E70A200190109946
:1029900001C910916102490F032900D100B2042935
:1029A00000D140B2002803DA40422D2103E00DE0BF
:1029B000210504D52B216A461173012103E0E107AB
:1029C00011D02021F7E70CAF0C9114E00A20019000
:1029D000109901C910916102490F032900D180B2F9
:1029E000042900D1C0B20021EDE70199FFF77AFB7D
:1029F00030317F1E39700028F7D104A8C01B203069
:102A00000190600704D5012000048443009801E090
:102A1000012000900199884201DD401A00E0002069
:102A2000411800900C9809180298401A0290E0038F
:102A300006D42146129B119A029800F043F8861999
:102A400000200D9008E003A9085C129A11999047A4
:102A50000D98401C761C0D900C998842F3DBE00326
:102A60000CD52146129B119A029800F02BF886197A
:102A700004E0129A302011999047761C0099481E64
:102A800000900029F5DC05E03878129A7F1C119936
:102A90009047761C0199481E01900029F4DC6BE7F1
:102AA00009280100F8B5044600251E46174688048B
:102AB00004D405E039462020B0476D1C641EF9D5CA
:102AC0002846F8BDFFB50446002581B01E46C80360
:102AD00001D5302700E02027880404D505E03846DA
:102AE0000399B0476D1C641EF9D5284605B0F0BDAA
:102AF0000A68531C0B6010707047F0B5059C0568A0
:102B00004F000326BE40B543056005684E001746DA
:102B1000B7403D430560456802268E40B543456099
:102B200045681E468E403543456085684F00032644
:102B3000BE40B543856085684E002746B7403D439B
:102B40008560C5684F000326BE40B543C560C668B2
:102B50004F00069DBD402E43C660072901DD0125BB
:102B600000E00025AE0005462035AD59072901DDFE
:102B7000012600E00026F6008E1BB7000F26BE409F
:102B8000B543072901DD012600E00026B60007460F
:102B90002037BD51072901DD012500E00025AE00E9
:102BA00005462035AE59072901DD012500E0002545
:102BB000ED004D1BAF00079DBD402E43072901DDF1
:102BC000012500E00025AD00074620377E51F0BD0D
:102BD000FFF7CAFBFFF7EAFBFFF75EFC7D21C900A8
:102BE0006A480068FFF77EFA0446601E684988421A
:102BF00000D90CE0601E674948610321081FFFF7F8
:102C000083FD0020634988610720086100BF624896
:102C1000FFF7D4FC61A16448FFF762FD6248FFF74B
:102C20002BFDFFF747FBB0E0FFF752FDFFF782FAFD
:102C30000120FFF7E3FA05460E46294630465B4B76
:102C400059405840014306D15948006802210843C1
:102C50005749086005E056480068022188435449F6
:102C60000860534800680221084000286CD0002406
:102C700018E002200921C906886288611020886254
:102C80000020FFF74FFB0020FFF74CFB0020FFF771
:102C900049FB0020FFF746FB10200921C906886187
:102CA000601CC4B2012CE4DB002429E002200921CD
:102CB000C90688628861102088620020FFF732FB15
:102CC0002146123189003B4A50500020FFF72AFB71
:102CD00021460C318900374A50500020FFF722FB73
:102CE000A11D8900334A50500020FFF71BFBA100B3
:102CF000304A505010200921C9068861601CC4B2B6
:102D0000062CD3DB00240CE0A0002A49085A020557
:102D1000120D29A12448FFF7E3FC2348FFF7ACFC80
:102D2000641C182CF0DB264826A102681E48FFF719
:102D3000D7FC1D48FFF7A0FC0A20FFF78FFC2048B6
:102D40000068401C1E49086019480068C007C00F91
:102D5000002819D01648006802210840002806D132
:102D600019A11148FFF7BCFC0F48FFF785FC144878
:102D70000068194908600E480068400840000C4986
:102D8000086000200E49086000BF4DE734010020B4
:102D9000FFFFFF0000E000E080841E004D61696ECF
:102DA000206170700A000000780100203F003F00A1
:102DB0002401002028020020253034643B0000005C
:102DC0002C01002025750000414443206E6F7420C3
:102DD000666F756E640A000030010020000000007C
:102DE00000000000010203040607080900000000BB
:102DF00001020304142E0008200100201800000026
:102E0000802700082C2E0008380100205005000003
:102E100090270008000000000000000000000000F3
:0C2E2000000000000000000000127A001A
:04000005080020B51A
:00000001FF
